:020000040800F2
:100000000079002055020008DB460008933E0008F6
:10001000D9460008ED0A0008697C000800000000CD
:10002000000000000000000000000000F172000865
:10003000930C000800000000A9080008A55600085D
:100040006F0200086F0200086F0200086F020008CC
:100050006F0200086F0200086F0200086F020008BC
:100060006F0200086F0200086F0200086F020008AC
:100070006F0200086F0200086F0200086F0200089C
:100080006F0200086F0200086F0200086F0200088C
:100090006F0200086F0200086F0200086F0200087C
:1000A0006F0200086F0200086F0200086F0200086C
:1000B0006F02000800000000000000006F0200084E
:1000C0006F0200086F0200086F0200086F0200084C
:1000D0006F0200086F020008917A00086F020008A2
:1000E0006F0200086F02000800000000000000001E
:1000F0000000000000000000000000000000000000
:10010000000000006F020008000000006F020008FD
:1001100000000000000000006F0200086F020008ED
:100120006F0200086F0200086F0200086F020008EB
:100130006F02000800000000000000000000000046
:100140006F0200086F0200086F0200080000000044
:100150006F0200086F0200086F0200086F020008BB
:100160006F0200086F0200086F0200080000000024
:100170006F0200086F02000800000000000000008D
:100180006F0200086F0200086F02000800F002F81A
:1001900000F051F80AA090E8000C82448344AAF1D0
:1001A0000107DA4501D100F046F8AFF2090EBAE8CE
:1001B0000F0013F0010F18BFFB1A43F0010318479B
:1001C0006CDD00008CDD00000A4410F8014B14F0D7
:1001D0000F0508BF10F8015B240908BF10F8014B98
:1001E0006D1E05D010F8013B6D1E01F8013BF9D1E1
:1001F000641E03D0641E01F8015BFBD19142E4D37D
:10020000704700000023002400250026103A28BF74
:1002100078C1FBD8520728BF30C148BF0B60704778
:10022000642900F01581002070471FB50BF0B4FE63
:100230001FBD10B510BD00F0B8FA1146FFF7F5FF6D
:1002400009F0E2FD00F0D6FA03B4FFF7F2FF03BCB9
:1002500000F0DEFA0948804709480047FEE7FEE75C
:10026000FEE7FEE7FEE7FEE7FEE7FEE7FEE7FEE766
:1002700004480549054A064B70470000D57300083D
:100280008D01000800730020007900200075002017
:100290000075002072B6704762B6704772B602B43D
:1002A000EFF3118180F31188BFF34F8FBFF36F8F8E
:1002B000084602BC62B6704772B680F31188BFF37D
:1002C0004F8FBFF36F8F62B6704730BF704720BF4C
:1002D0007047B0FA80F0704790FAA0F0B0FA80F062
:1002E000704790FAA0F0704753EA020C00F0698062
:1002F0002DE9F04B4FF00006002B1FBFB3FA83F53A
:1003000003FA05F424FA05F65E4012BF1643B2FA6A
:1003100082F502FA05F4C5F120051EBF22FA05FC9C
:1003200044EA0C04203556EA044C4FEA144418BF42
:10033000641C4FF000084FF00009904271EB030C71
:1003400039D3002919BFB1FA81F701FA07F6B0FADB
:1003500080F700FA07F6C7F120071EBF20FA07FC56
:1003600046EA0C062037B6FBF4FCA7EB0507103F66
:1003700007F01F0BCBF120060CFA0BFB2CFA06F64C
:1003800044BFB3460026202FA4BF5E464FF0000BAB
:100390005BEA060C08BF4FF0010B19EB0B09ABFB36
:1003A000027C48EB0608C01B06FB02CC0BFB03CC0F
:1003B00071EB0C01C1E70B46024641464846BDE8D9
:1003C000F08B13B54FF000004FF00001AFF3008049
:1003D000BDE81C40704700000FB41CB5074B06AACF
:1003E0007B4469460090059800F0C7F900206946F3
:1003F00000F0D6F91CBC5DF814FB0000BD03000042
:1004000070B5044685690068C10601D5302600E054
:100410002026C00707D070BDD4E90121304690479F
:10042000206A401C20626D1EF6D570BD70B5044672
:1004300085690078C00707D170BDD4E9012120206B
:100440009047206A401C20626D1EF6D570BD0000EA
:100450002DE9F0410646002410687529314616A59D
:1004600010D0AFF30080002802DA404213A507E065
:1004700031688A0701D512A502E0490704D511A504
:10048000012401E0AFF3008000210A2206F12407D5
:1004900009E0B0FBF2FCB0FBF2F302FB1C003030D1
:1004A00078541846491C0028F3D123462A46304682
:1004B000BDE8F04100F003B9000000002D0000008D
:1004C0002B000000200000002DE9F05F8946044663
:1004D0004FF0000ADFF824B1FB44C0F820A020460A
:1004E000E168884700287DD0252806D0D4E901217D
:1004F0009047206A401C2062F1E700255F462046B5
:10050000E16888472028064607DB312E05D2B81956
:1005100010F8200C08B10543F1E7A80701D525F034
:100520000405C4F81CA00027C4F818A02A2E09D07E
:10053000304607F0AAFB38B304EB8708303EC8F812
:10054000186019E059F8041B204604EB87029161FA
:10055000E1688847012F064618D1E069002820DAB3
:1005600025F020051DE0D8F8180000EB800006EB10
:1005700040003038C8F818002046E1688847064631
:1005800007F083FB0028EED1012F0AD02E2E08D1D0
:100590002046E16888477F1C0646022F45F020056B
:1005A000C4DBA069002803DA404245F00105A061E0
:1005B000E80701D025F01005A6B1A6F141001928E1
:1005C00002D8203645F400654A463146204625606B
:1005D0004D46FFF725FE60B1012807D0ED1D25F03F
:1005E000070000E007E000F1080978E705F10409D9
:1005F00075E730467AE7206A00F002B83CDA00007E
:1006000030BCBDE8C09F10B5203AC0F00B80B1E807
:100610001850203AA0E81850B1E81850A0E8185037
:10062000BFF4F5AF5FEA027C24BFB1E81850A0E840
:10063000185044BF18C918C0BDE810405FEA827C5A
:1006400024BF51F8043B40F8043B08BF7047D20771
:1006500028BF31F8023B48BF11F8012B28BF20F812
:10066000023B48BF00F8012B70474FF0000200B575
:10067000134694469646203922BFA0E80C50A0E8C5
:100680000C50B1F12001BFF4F7AF090728BFA0E873
:100690000C5048BF0CC05DF804EB890028BF40F83F
:1006A000042B08BF704748BF20F8022B11F0804F81
:1006B00018BF00F8012B70477047704770472DE94D
:1006C000F0470D4699469246044600F12408016819
:1006D000880604D5E06921F01001216000E00120C6
:1006E000A84201DD471B00E00027A1697A1902EB4F
:1006F0000900081AA0612078C00602D42046FFF73E
:100700007FFE002608E0D4E901211AF80600904790
:10071000206A401C761C20624E45F4DB2078C0061F
:100720000AD52046FFF76CFE06E0D4E9012130200F
:100730009047206A401C2062381EA7F10107F4DCB4
:1007400007E0D4E9012118F805009047206A401C11
:100750002062281EA5F10105F3DC2046FFF766FEA6
:100760002078000602D50220BDE8F0870120FBE7D3
:1007700001694A1C02610878704700B58FB0CDE965
:1007800001310021059105497944CDE90310114655
:100790006846FFF799FE0FB000BD0000E5FFFFFFC0
:1007A0000A6802F8010B0A607047754600F02CF8E1
:1007B000AE4605006946534620F00700854618B04E
:1007C00020B5FFF755FDBDE820404FF000064FF083
:1007D00000074FF000084FF0000B21F00701AC4676
:1007E000ACE8C009ACE8C009ACE8C009ACE8C00995
:1007F0008D46704710B50446AFF300802046BDE833
:100800001040FFF721BD000000487047A072002093
:1008100001491820ABBEFEE7260002007047000029
:1008200072B64EF62250CEF2000040F2FF01C0F246
:1008300000010170002080F3098840F24400C2F2F8
:100840000000016881F3088804F0A4FE40F27C00F7
:10085000C2F2000040F27D01C2F200010A7802708B
:1008600040F2C400C2F2000040F2C801C2F200012E
:100870000A680260106880F30988EFF3148040F082
:10088000020020F0040080F31488BFF36F8F00F0A3
:1008900055B80FBCBDE8005006BC62B608472648F4
:1008A0004FF080510160704772B640F24802C2F2C8
:1008B0000002116881F31188BFF34F8FBFF36F8F70
:1008C00062B6EFF309801EF0100F08BF20ED108A0A
:1008D00020E9F04F40F2C405C2F200052968086023
:1008E000744604F057FE40F27C00C2F2000040F271
:1008F0007D01C2F200010A78027040F2C801C2F222
:1009000000010A682A6044F0040E106800F01BB869
:100910001EF0100F08BF00F01BB880F3098840F2EA
:100920000002C0F2000272B682F31188BFF34F8F4B
:10093000BFF36F8F62B6704704ED00E030BCBDE8D6
:10094000C04FFFF7A6BF30C8B0E8C04FFFF7E0BF09
:10095000B0EC088AB0EC08CAFFF7DFBF10B5846AB4
:10096000616D11F0500F06D0616DC90625D5204686
:1009700000F0AFFB10BD606D40F400706065206852
:100980000168090716D503F099FC78B12068C068A2
:10099000800400280ADB606D20F480706065606D63
:1009A000C00403D4606D40F001006065204600F093
:1009B0008EFB10BDC0688007EBE7E16C496BBDE8BA
:1009C0001040084710B5806A416D41F04001416513
:1009D000816D41F00401816500F07BFB10BD10B515
:1009E000806A00F075FB10BDF8B504460020009049
:1009F0002068816811F0010F41D18168214A1142BC
:100A00002ED18168D5432940491C81601E488068E9
:100A100000F0E07000020DD51C481D490068B0FBD5
:100A2000F1F0401C00EB4000800000E0401E009010
:100A30000028FBD101F068F806461BE0816811F040
:100A4000010F03D181682940491C816001F05CF8E5
:100A5000801B02280ED920680068C043C00709D057
:100A6000606D40F010006065A06D40F00100A06571
:100A70000120F8BD20680168C943C907DED1002004
:100A8000F8BD00003F000080000304503800002043
:100A9000400D03003EB50B46CDE90032C0F3022104
:100AA000A02444EA41014FF0FF34C2B20294012372
:100AB000014801F0E1F83EBD580200203EB50B466A
:100AC000CDE90032C0F30221A02444EA41014FF0F5
:100AD000FF34C2B202940123034801F083F9BDE858
:100AE0003E40052000F066BE58020020FEE7704739
:100AF0000649074A0968B1FBF2F141430520B1FB01
:100B0000F0F000E000BF401EFCD27047380000202B
:100B100040420F002DE9FC478246002089460090A4
:100B2000019000F08DF8374D00221021284600F08A
:100B3000E5FF122000F03EFE01221021284600F0C1
:100B4000DDFF2820FFF7D4FF00F068F810212846C9
:100B500000F0CFFF0028F9D05020FFF7C9FF102187
:100B6000284600F0C6FF0128F9D0274E0024E846A9
:100B70001021284600F0BDFF0028F9D07768102129
:100B8000284600F0B6FF0128F9D070681F4BC11B42
:100B900008EBD4001E4F02785206120E02701B683A
:100BA000B3FBF7F303EB8303B1EBC30F02D942F0BE
:100BB00001010170641CE4B2282CD9D39DF80020F7
:100BC00089F800209DF802009DF8031000EB8003D7
:100BD00001EB4304AAF800409DF8013008441A4490
:100BE0009DF804101044884202D0002000F012B892
:100BF00000F026F801221021284600F07FFF012096
:100C0000F4E7000000080048001000E03800002071
:100C100040420F000CBCBDE8F087000000B585B075
:100C2000142205496846FFF7EEFC6946034800F0C8
:100C300075FE05B000BD0000C8DD000800080048D2
:100C400000B585B0142205496846FFF7DCFC69460B
:100C5000034800F063FE05B000BD0000B4DD0008ED
:100C60000008004830B590F8444004F01C05012409
:100C7000AC40056C6C60046863608368102B03688B
:100C800003D099600068C26030BD9A600068C1609E
:100C900030BD704772B6FEE7002200F001B80000D8
:100CA00030B50E4B054601205C7A002C14D1587AE1
:100CB0001C54587A03EB800045605D7A03F108000C
:100CC0002A54587A421C5A72303008703A204870C0
:100CD0002F208870CC70002030BD0000041200204E
:100CE0002DE9F84F00270446009790F85000DFF8F0
:100CF000AC930D46B846012811D0012684F8506007
:100D0000206803F0D7FA60B1606D40F020006065A4
:100D10005FF0010784F85080384600F0D5B9022012
:100D2000FBE76868052808D8022825D0032825D0C5
:100D3000042825D0052825D0062021680C2303EAA5
:100D4000901319442A680B6B00F01F004FF01F0C22
:100D50000CFA00FCC2F3846223EA0C0382401343C2
:100D60000B63206803F0A6FA8246206803F09EFA1F
:100D70005AEA000009D09AE00C20DEE71220DCE7F6
:100D80001820DAE74FF48070D7E7AA68296820684E
:100D900003F09CFA20686969C268C2F3C10252007C
:100DA00091402A69042A0FD000EB82002B68026E62
:100DB000DFF8ECC203F0F84302EA0C020B431A43DB
:100DC00042F00041016672E0002103F069FA40033D
:100DD00020684FF0000172D003F062FA90FAA0F0A0
:100DE000B0FA80F1286842036ED090FAA0F0B0FA11
:100DF00080F0814204D100221146206803F075FA88
:100E00000121206803F04CFA400320684FF00101F3
:100E10005DD003F045FA90FAA0F0B0FA80F12868AE
:100E2000420359D090FAA0F0B0FA80F0814204D188
:100E300000220121206803F058FA0221206803F003
:100E40002FFA400320684FF0020148D003F028FA3F
:100E500090FAA0F0B0FA80F12868420344D090FAEA
:100E6000A0F0B0FA80F0814204D100220221206873
:100E700003F03BFA0321206803F012FA40032068D4
:100E80004FF0030133D003F00BFA90FAA0F0B0FA60
:100E900080F1286842032FD090FAA0F0B0FA80F0D9
:100EA000814204D100220321206803F01EFA206849
:100EB000816811F0010F22D0ABE000E004E003F004
:100EC000EFF9C0F384618DE7C0F3846091E703F02C
:100ED000E7F9C0F38461A2E7C0F38460A6E703F0FA
:100EE000DFF9C0F38461B7E7C0F38460BBE703F0C8
:100EF000D7F9C0F38461CCE7C0F38460D0E72A7BE4
:100F0000296850F8B03FC1F3120C23EA0C0302F039
:100F1000180C644A22FA0CF20A4013430360E96891
:100F2000494576D1286841031BD090FAA0F1B1FA67
:100F300081F1491C01F01F0109294FEA403131D8E4
:100F4000002911D090FAA0F1B1FA81F101F101016B
:100F500001F01F0106FA01F609D100BFC0F3846158
:100F600009E0C0F38461E4E7C0F38461EEE790FA3E
:100F7000A0F1B1FA81F101F1010101F01F0146EA8E
:100F8000816102D1C0F3846003E090FAA0F0B0FA6E
:100F900080F000F1010000F01F0000EB400041EA8A
:100FA000005132E000290ED090FAA0F1B1FA81F19F
:100FB00001F1010101F01F0106FA01F606D100BF9F
:100FC000C0F3846106E0C0F38461F1E790FAA0F118
:100FD000B1FA81F101F1010101F01F0146EA8161DD
:100FE00002D1C0F3846003E090FAA0F0B0FA80F080
:100FF00000F1010000F01F002B4A00EB400002EB63
:10100000005041EA000141F00071AA68206803F035
:101010005DF926482A6802423FF47CAE2448816884
:10102000244D254B01F0E071AA421BD10D0219D4C9
:1010300022689A427FF46EAE826841F4000122F089
:10104000E0720A4382601D481D490068B0FBF1F060
:10105000401C00EB4000800000E0401E0090002893
:10106000FBD157E6174DAA4207D1CD0105D422681E
:101070009A42F6D141F080710AE06FF00045EA42F1
:10108000EFD14A02EDD422689A42EAD141F48001BC
:10109000826822F0E0720A4382603BE600007F40F3
:1010A00000F0FF03FFFF0700000020FE00000880A3
:1010B00000030450000052C7000004503800002014
:1010C000400D0300000084CB18BCBDE8E08F7047E2
:1010D00070477047F8B54FF0000504002E460095A4
:1010E00002D0606D10B107E00120F8BD204600F08D
:1010F000C5F8A66584F8506020688168C1F3407126
:1011000019B18168554A1140816020688168C1F336
:10111000007189B98168524A114041F08051816063
:10112000504851490068B0FBF1F04000801C00E0DD
:10113000401E00900028FBD120688168C1F3007137
:1011400041B9616D41F010016165A16D41F001018E
:10115000A165012503F0AEF8616DC90600D430B178
:10116000606D40F01000606501252846F8BD606D97
:1011700020F4807040F0020060652068806810F004
:10118000010F0BD13948806810F0010F06D13848A3
:101190006168826822F47C120A438260E168606BB5
:1011A000627E0843A16841EA4231084394F8201066
:1011B00040EA0140012904D1A18C2E4A02EB4141B1
:1011C0000843A16A29B101F47071E26A014342EA5D
:1011D00001002168CA68284B1A400243CA6020688F
:1011E00003F064F8A8B9207E94F83010800340EA38
:1011F00041022068C16844F2020399431143C1606F
:1012000094F8380001280CD02068016921F0010110
:101210000161206901282068016B21F00F0111D0C4
:1012200013E0D4E90F010843D4E911121143084334
:1012300021680A6940F2FC739A43104340F00100B0
:101240000861E6E7E269521E11430163606D20F018
:10125000020040F00100606587E70000C0FFFF5F0B
:10126000C0FFFF7F38000020400D03000000045045
:10127000000304500000FEFF07C0F0FF70B586B009
:10128000054614216846FFF7F0F91D492868884291
:1012900033D11C49C86C40F40050C864C86C00F4D9
:1012A00000500590C86C40F00100C864C86C00266E
:1012B00000F001000590C12000900B20CDE901064F
:1012C00069464FF0904000F029FB104C0E48C4E9ED
:1012D00000068020A660C4E9036040006061C00091
:1012E000A0612020E06100022062204600F0CAF9DF
:1012F00008B1FFF7CFFCEC64A56206B070BD00003A
:10130000000004500010024008000240FC010020D0
:1013100070B5044615460E46006802F0CBFFE0BBF0
:1013200094F85000012842D0012084F85000204653
:10133000FFF75AFB002110B184F8501070BD606DAA
:1013400040F60162904340F480706065606DC004B7
:1013500004D5A06D20F00600A06500E0A165E26C58
:101360001448D062E26C14481063E26C1348506376
:1013700022681C20106084F850102068416841F0F9
:10138000100141602068C16841F00101C16021681D
:101390002B4632464031E06C00E008E000F0D2F924
:1013A00021688A68064B1A40121D8A6070BD0220AF
:1013B00070BD00005D090008DF090008C5090008CC
:1013C000C0FFFF7F2DE9F0470446407990460E4666
:1013D00001280BD04FF0010984F8059002202071FC
:1013E000316808F01005042903D04DE00220BDE863
:1013F000F08700F089FB07465FEA08004FF003081A
:1014000009D024E000F080FBC01B012803D920682C
:10141000406B000413D42068406B0004F2D4012018
:1014200000F0C8F92168B06908641AE000F06CFBAC
:10143000C01B01280BD92068406B002807DA2069FF
:1014400040F00800206184F804800320CFE7206882
:10145000406B0028EADB012000F0ACF92168B0699C
:1014600048642068816C40F2FF32AA409143F269DF
:10147000AA40114381642068C16CFF22AA409143B5
:10148000326AAA401143C1643069012808D1226838
:10149000916B1F20A84081437069A8400843906366
:1014A0002268D16B0720A8408143B3683068184395
:1014B000F3681843A8400843D063206801684FF4DC
:1014C0008042AA40914301602268116840F6FC7096
:1014D000A84081437068A8400843106020680168F4
:1014E000C022AA409143016084F8049000206071FA
:1014F0007DE770B5040003D02079002510B105E028
:10150000012070BD6571204600F008F802202071AE
:10151000256101202071002070BD000010B586B04B
:10152000044614216846FFF7A0F811492068884254
:101530001BD11048816D41F000518165816D01F032
:1015400000510591C16C41F00101C164C06C694654
:1015500000F0010005903020009003200190002051
:1015600002904FF0904000F0D9F906B010BD000095
:10157000007400400010024018B504680094006830
:10158000104421B1143000900360002018BD0830D1
:10159000F9E770B54279012A14D001224271022381
:1015A000037103681D6801F0100602FA06F4254372
:1015B0001D60002901680B6806D0C3F38343012B2B
:1015C0000AD00DE0022070BDC3F38303012B07D1C5
:1015D0004B6843F0010302E04B6843F002034B60A9
:1015E000027100214171084670BD10B590F82510B8
:1015F0000022022905D00421C16380F824200120A3
:1016000010BD01680B6823F00E030B6001680B68C6
:1016100023F001030B6090F84410046C01F01C03EC
:10162000012101FA03F3636080F8251080F824207B
:10163000104610BD10B590F825100024022903D0E3
:101640000421C16301241AE001680A6822F00E0235
:101650000A6001680A6822F001020A6090F84410EA
:10166000036C01F01C02012101FA02F25A6080F8B9
:101670002510002180F82410816B01B18847204695
:1016800010BD000070B568B12B4C036814212B4AC3
:10169000A34209D22A4C1C44B4FBF1F18900C0E9F1
:1016A00010210BE0012070BD234C64421C44B4FBAC
:1016B000F1F189004164204908390164022180F870
:1016C00025101C6847F6F0718C43D0E902152943B8
:1016D000D0E904563543294385692943C56929431F
:1016E000056A2943214319608168B1F5804F19D0FB
:1016F000036C0F21934202D152F8A83F02E00E4A38
:10170000A032136890F8444004F01C04A1408B43BD
:10171000136090F84430416803F01C03994013684B
:10172000194311600021C163012280F8252080F84F
:101730002410084670BD000008040240000002406A
:10174000F8FFFDBF70B5044690F82400002501287D
:101750000CD0012084F8240094F825600020012E8C
:1017600006D084F824000225284670BD022070BDF2
:10177000022684F82560E0632068066826F00106EA
:1017800006602046FFF76EFA206B0028206801688B
:1017900002D041F00E0106E021F004010160206852
:1017A000016841F00A0101602068016841F001010F
:1017B0000160D9E770B5044600F0A6F90546601C43
:1017C00002D004480078044400F09EF9401BA04277
:1017D000FAD370BD2C0000202DE9F84F002301261C
:1017E000DFF818C10F2782E006FA03F414EA0102B9
:1017F0007CD023F003056544AA46D5F808909D07E0
:101800004FEA157E07FA0EF505EA090B0095B0F1CF
:10181000904F05D03A4DA84205D14FF0010816E08F
:101820004FF0000813E0374DA84202D14FF00208F4
:101830000DE0354DA84202D14FF0030807E0334DCB
:10184000A84202D14FF0040801E04FF0070808FA5F
:101850000EF8D84526D1DFF8B880D8F8009029EAEC
:101860000209C8F8009008F10408D8F8009029EAA5
:101870000209C8F80090DFF8988008F10C08D8F841
:10188000009029EA0209C8F80090A8F10408D8F8E5
:1018900000509543C8F80050009DDAF80820AA438C
:1018A000CAF80820D0F800804FEA4309032202FA60
:1018B00009F248EA0208C0F80080DD0800EB85055F
:1018C000AA46D5F820804FEA43794FEAD96907FA4A
:1018D00009F528EA0508CAF82080856895438560DF
:1018E0004568A5434560C4689443C4605B1C31FAF5
:1018F00003F27FF479AF00F00DB800000000014062
:101900000004004800080048000C0048001000488F
:101910000004014018BCBDE8E08F00002DE9F04F45
:10192000DFF8AC9100230325A9F1040B85B04FF03B
:10193000010C0F2709F1040AABF1040EBFE000BF50
:101940000CFA03F6324075D00C7904F00304012C34
:1019500001D0022C1BD1846800945C0005FA04F8C5
:101960000494009C24EA08040094D1F80C80049CA0
:1019700008FA04F8009C48EA0408C0F808804468A3
:10198000B4430E79C6F300169E40264346600C7998
:10199000E443A4070AD0C4684FEA430805FA08F6EE
:1019A000B4438E6806FA08F62643C6600C7904F044
:1019B0000304022C10D1DC0800EB84040294246A96
:1019C0005E074FEAD66807FA08F6B4430E6906FACE
:1019D00008F62643029C266204684FEA430805FA8B
:1019E00008F6B4430E7906F0030606FA08F6264315
:1019F00006604C6814F4403F60D0364C266E46F0CA
:101A000001062666246E23F0030604F00104009408
:101A1000314C34440294A4689E074FEA167807FAC2
:101A200008F6B443B0F1904F05D02C4EB04204D12B
:101A3000012612E042E000260FE0294EB04201D11B
:101A400002260AE0274EB04201D1032605E0264EC9
:101A5000B04201D1042600E0072606FA08F6264324
:101A6000029CA660D9F800604C46D1F804809643E9
:101A70005FEAC82800D516432660DAF800405646CB
:101A8000D1F8048094435FEA882800D51443346079
:101A9000DBF800405E46D1F8048094435FEA883862
:101AA00000D514433460DEF800407646D1F8048057
:101AB00094435FEAC83800D5144334605B1C0A685D
:101AC00032FA03F47FF43CAF05B000F00FB8000029
:101AD00008040140001002400000014000040048DA
:101AE00000080048000C00480010004830BCBDE869
:101AF000C08F0069084000D0012070470AB18161A1
:101B0000704781627047000001488068704700009C
:101B10002C00002090F84120202A24D190F8402069
:101B2000012A20D0012280F84020242280F8412080
:101B30000268136823F0010313600268136823F43A
:101B400080531360026813680B43136001680A68CE
:101B500042F001020A60202180F84110002180F843
:101B60004010084670470220704790F84120202A14
:101B700022D190F84020012A1ED0012280F8402076
:101B8000242280F841200268136823F001031360C7
:101B90000268136823F4706343EA0121116001684D
:101BA0000A6842F001020A60202180F841100021F9
:101BB00080F84010084670470220704770B5040056
:101BC00004D094F84100002510B106E0012070BD5A
:101BD00084F84050204600F0B5F9242084F84100F4
:101BE0002068016821F0010101606068216820F02F
:101BF000706008612068816821F400418160E068BC
:101C00000128A06830D040F4044021688860E06872
:101C10000228206841682AD021F4006141602068D0
:101C20004168144A114341602068C16821F40041B1
:101C3000C160D4E904010843A16940EA0120216898
:101C4000C860D4E90701084321680860206801687A
:101C500041F0010101606564202084F841002563A2
:101C600084F84250002070BD40F40040CDE741F4BC
:101C70000061D3E7008000022DE9FF4F83B00446E6
:101C8000DDE9108790F84100DDF848A09B46202848
:101C900076D15FEA080015D0A7B194F8400001287A
:101CA0006ED04FF0010984F84090FFF72DFF0646F3
:101CB000012200901923D103204602F057FA002890
:101CC00072D103E04FF4007060646DE0222084F86C
:101CD0004100402084F8420000256564C4F8248057
:101CE00067856563CDE900A6DDE904125B46204601
:101CF00002F068F910B184F8405055E0618D354824
:101D00004FF080774FF00078FF2905D9A4F828908C
:101D10004A463B46009005E0618D2185009094F88D
:101D2000282043462046049902F0ECF9534600224D
:101D300004212046009602F019FAA8BB2068406AE8
:101D4000616A0870606A401C6062208D401E81B22A
:101D50002185608D401E6085608DE0B1D9B9534604
:101D6000002280212046009602F000FAE0B9608D42
:101D7000FF2806D9A4F828904A463B46009506E07D
:101D800026E0608D2085009594F828204346204663
:101D9000049902F0B7F9608D0028C7D13246514648
:101DA000204602F020FA18B1012007B000F016B862
:101DB00021682020C86121684A68074B1A404A60A0
:101DC00084F8410084F8425084F840500020ECE749
:101DD0000220EAE70024008000E800FE30BCBDE8F5
:101DE000C08F00002DE9FF4F83B00446DDE9108766
:101DF00090F84100DDF848909A469346202871D12A
:101E00005FEA080014D09FB194F84000012869D01F
:101E1000012084F84000FFF777FE0646012200907B
:101E20001923D103204602F0A1F900286ED103E066
:101E30004FF40070606469E0212084F84100402084
:101E400084F8420000256564C4F8248067856563D2
:101E5000CDE9009653465A462046049902F0E4F82C
:101E600010B184F8405051E0608DFF274FF080782A
:101E70004FF0007AFF2804D927853A46434600955B
:101E800005E0608D2085009594F828205346204673
:101E9000049902F037F932464946204602F0CEF95D
:101EA000A0BB606A216800788862606A401C60623A
:101EB000608D401E6085208D401E80B22085618D22
:101EC000D9B1D0B94B46002280212046009602F0BD
:101ED0004DF9D8B9608DFF2805D927853A46434684
:101EE000009506E026E0608D2085009594F8282076
:101EF00053462046049902F005F9608D0028CAD1A6
:101F000032464946204602F06EF918B1012007B06A
:101F100000F014B820682021C16120684268064B97
:101F20001A40426084F8411084F8425084F84050CE
:101F30000020ECE70220EAE700E800FE30BCBDE844
:101F4000C08F000030B59DB00446142117A8FEF7DD
:101F50008CFB5C216846FEF788FB174920688842A5
:101F600028D18020002500900D95684600F0ACFA3D
:101F700008B1FEF78FFE114CE06C40F00200E06407
:101F8000E06C17A900F002001C904FF4406017901D
:101F90001220CDE9180503201A9004201B90084850
:101FA000FFF7BCFCA06D40F48000A065A06D00F4BC
:101FB00080001C901DB030BD005800400010024051
:101FC000000400480248816802781144816070472B
:101FD0002C00002010B50024032000F051F80F2041
:101FE00000F007F808B1012401E000F005F82046F0
:101FF00010BD002070470000094808B5016E41F08F
:1020000001010166016E01F001010091816D41F055
:1020100080518165806D00F08050009008BD000007
:1020200000100240002809DB00F01F02012191404E
:102030004009800000F1E020C0F800117047000066
:10204000F0B40E4B1B680C46C3F30223C3F1070523
:10205000042D00D90425191D072901D2002300E011
:10206000DB1E012606FA05F1491E214099409E40DB
:10207000761E16403143F0BC05F0F7BD0CED00E0D4
:10208000064900F0070208684FF6FF03184040EACF
:102090000220034A10430860704700000CED00E086
:1020A0000000FA051649B0F5007F0868C0F341202A
:1020B00009D0022805D0086820F4C06040F4806090
:1020C0000860002070470128FBD0086820F4C06039
:1020D00040F4007008600B483222006850430A4AFE
:1020E000B0FBF2F0401C00E0401E4A69520501D5E9
:1020F0000028F9D148694005E3D503207047000066
:10210000007000403800002040420F000248006884
:1021100000F4C06070470000007000400248016891
:1021200041F4807101607047007000400549CB6840
:1021300000F01F02934343EA5010C86088681043C0
:1021400088607047007000400648016821F0070170
:10215000C91C01600448016841F00401016030BFFE
:10216000704700000070004010ED00E02DE9F05FC6
:1021700003460020C24A4FF4FA484FF40045B3F535
:10218000003F0CD0D168F02601F00301BD4FBE4CDA
:10219000012923D0022933D003293BD135E0D2F8DD
:1021A000901001F44071B1F5807F0BD0B1F5007F44
:1021B0000ED0B1F5407F03D11168890300D5B34833
:1021C00000F06AB9D2F890108907F9D52846F7E7E8
:1021D000D2F894108907F3D54046F1E711688907D2
:1021E00018D51168090703D5116801F0F00103E063
:1021F000D2F8941006EA1111090957F821100AE0E3
:102200001168490506D5214605E01168890301D505
:102210009F4900E000214FF480694FF4804A4FF459
:10222000802B4FF4002E4FF4006CB3F5007F78D074
:1022300027DC202B76D011DC012B74D0022B73D03D
:10224000042BBDD1D2F8881011F030016DD01029C7
:102250002AD0202914D03029B2D1B3E7402B79D02D
:10226000802B78D0B3F5807FAAD1D2F8881011F4F2
:1022700040315AD0B1F5803F16D0B1F5003F9FD123
:10228000F3E0AB4268D010DC4B4578D0634529D0F1
:10229000534595D1D2F8883003F04053B3F1805FB5
:1022A0006ED0B3F1405F8BD1B6E05B4501D0734592
:1022B00086D1D2F8883013F040634ED0B3F1806FEE
:1022C00034D0B3F1006F1AD0B3F1406F85D11168EB
:1022D00089077FF57CAF1068000708D5106800F00B
:1022E000F00008E0604600F0DAB804F06FB9D2F808
:1022F000940006EA1010000957F8200060E7136800
:102300009B01FBD5D368DB02F8D5D068C0F306206B
:102310004143D068C0F30210401CB1FBF0F0D1681B
:1023200015E07DE03DE01EE02FE0A3E013681B0117
:10233000E4D51369DB02E1D51069C0F306204143FF
:10234000D068C0F30210401CB1FBF0F01169C1F37A
:10235000415146E04AE055E07FE0D2F89810890705
:10236000CCD54C482CE7D2F8881011F0030108D0E6
:10237000012951D0022978D00329BFD122E75DE09D
:102380001CE000F091B800F0B1BAD2F8881011F05A
:102390000C0170D004293FD0082966D00C29ADD19A
:1023A00010E7D2F8881011F4406164D0494533D069
:1023B00061455AD0B1F5406FA0D103E713681B0106
:1023C0009CD51369DB0199D51069C0F30620414300
:1023D000D068C0F30210401CB1FBF0F01169C1F3EA
:1023E0004161491C4900B0FBF1F0E9E6D2F88810E0
:1023F00011F440513FD0B1F5805F0DD0B1F5005FD1
:10240000B0D132E0D2F8881011F4404133D05145B8
:1024100002D0A942A6D128E000F04BB800F078BA6B
:10242000D2F8881011F4402125D059453FF4D0AEA0
:1024300071451AD0B1F5402F94D1C3E6D2F8881077
:1024400011F4401117D0B1F5801FEFD0B1F5001F86
:102450000BD0B1F5401F85D1B4E6D2F8881011F049
:10246000804108D0B1F1804FBFD111684905BCD57A
:102470002046A5E6FFE700F021B800F025BA0000ED
:1024800000100240F8DD00080024F40090D00300A2
:1024900000127A00006CDC0230BCBDE8C09F30BC8A
:1024A000BDE8C05FFFF721BF30BCBDE8C05FFFF7EC
:1024B0006ABF30BCBDE8C05FFFF7B0BF30BCBDE84D
:1024C000C05FFFF7DABF00002DE9F84F0446002790
:1024D0000088A84D3E46000515D5606C60B1B0F58A
:1024E000000F04D0B0F5400F2BD001270AE0E868B8
:1024F00040F48030E86024E00021201D04F0BAF8A8
:1025000007001ED03E46206880033AD5A86D4FF0E4
:102510000008C00009D4A86D40F08050A865A86DDF
:102520004FF0010800F080500090DFF84CA2DAF87C
:10253000001041F48071CAF80010FFF7E5FA8146F7
:1025400010E0D5F88800616C20F440000843C5F81D
:102550008800D8E7FFF7D8FAA0EB0900022801D9D4
:10256000032705E0DAF80000C005F3D5002F7DD081
:102570004FEA0706B8F1000F03D0A86D20F0805095
:10258000A8652078C00707D0D5F88800216A20F018
:1025900003000843C5F888002078800707D5D5F8E0
:1025A0008800616A20F00C000843C5F88800207894
:1025B000400707D5D5F88800A16A20F0300008430D
:1025C000C5F888002078800607D5D5F88800E16A2C
:1025D00020F440600843C5F888002088800507D5AE
:1025E000D5F88800E16B20F440200843C5F8880046
:1025F0002088400507D5D5F88800216C20F44010CC
:102600000843C5F888002078400607D5D5F888002B
:10261000216B20F440500843C5F88800207800065C
:1026200007D5D5F88800616B20F440400843C5F811
:1026300088002088C00507D5D5F88800A16B20F454
:1026400040300843C5F8880020684FF00067000359
:102650004FF0806850D5D5F88800A16C20F040601C
:102660000843C5F88800A06CB84200E005E03BD103
:10267000E86840F48010E8603EE0D5F8900010F47F
:10268000407014D0A16D814211D0D5F89000D5F8DA
:10269000901020F4407041F48031C5F89010D5F8C6
:1026A000901021F48031C5F89010C5F89000C00753
:1026B00011D0FFF729FA074641F2883907E000BF39
:1026C000FFF722FAC11B494501D9032652E7D5F885
:1026D00090008007F4D5D5F89000A16D20F44070EB
:1026E0000843C5F8900045E7404505D10121201D6C
:1026F00003F0C0FF00B106462068400317D5D5F8A7
:102700008800E16C20F040600843C5F88800E06C68
:10271000B84204D1E86840F48010E86007E0404522
:1027200005D10121201D03F0A5FF00B10646208838
:10273000400411D5D5F88800216D20F040500843A1
:10274000C5F88800206DB0F1805F05D10221201D01
:1027500003F090FF00B106462088000406D555F826
:10276000880F616D20F0804008432860304600F0FB
:1027700005B80000001002400070004018BCBDE821
:10278000E08F00002DE9F0470F4605006BD0494E61
:10279000306800F00700B84209D2306820F0070026
:1027A00038433060306800F00700B8425BD12878C9
:1027B000414C80070AD5A868A16801F0F001884261
:1027C00004D9A16821F0F0010143A1602878C00775
:1027D0002CD06868032811D0022812D0216898B143
:1027E000490500293FDAA16821F003010143A160F6
:1027F000FFF78AF9804641F2883910E021688901A3
:10280000EFE721688903ECE78907EAE7FFF77CF93E
:10281000A0EB0801494502D90320BDE8F087A06874
:10282000696800F00C00B0EB810FEFD128788007C9
:102830000AD5A868A16801F0F001884204D2A16815
:1028400021F0F0010143A160306800F00700B842B8
:102850000BD9306820F0070038433060306800F052
:102860000700B84201D00120D7E72878400705D5F6
:10287000A068E96820F4E0600843A06028780007B9
:1028800006D5A068296920F4605040EAC100A06024
:1028900000F03EF8A168094AC1F30311515C01F050
:1028A0001F01C8400649086006480068BDE8F047B7
:1028B000FFF79FBB0020024000100240E8DD000847
:1028C000380000203000002005480649006889686B
:1028D000054AC1F30221515C01F01F01C840704755
:1028E000380000200010024028DE00080548064994
:1028F00000688968054AC1F3C221515C01F01F01DB
:10290000C8407047380000200010024028DE000850
:1029100070B52549002318468A68CC6812F00C026D
:1029200004F00306214C4FEA640509D00C2A05D0B7
:10293000042A32D0082A00D1284670BD012E10D1B9
:102940000B681B0704D4D1F89430C3F3032302E0CF
:102950000B68C3F30313164E56F82330DAB10C2A72
:10296000EBD1C86800F00300022818D0032818D063
:102970001846CA68CB68C2F30212C3F30623434366
:10298000521CB3FBF2F2C868C0F34160401C400027
:10299000B2FBF0F070BD184670BD204670BD2046F9
:1029A000E7E72846E5E70000001002400024F400B5
:1029B000F8DD00082DE9F84304006FD0FA4DA8684F
:1029C00000F00C06E86800F003072078C00664D524
:1029D00076B10C2E01D1012F0AD0A06900282868F9
:1029E0007AD040F001002860FFF78EF880465DE065
:1029F0002868800702D5A0690028DED0216A2868EF
:102A0000000703D5286800F0F00004E0D5F8940032
:102A1000F02202EA1010814216D9084603F0C0FEE7
:102A200000283BD1286840F0080028602868216A07
:102A300020F0F000084328606868E16920F47F40D6
:102A400040EA0120686016E0286840F0080028602D
:102A50002868216A20F0F000084328606868E1696E
:102A600020F47F4040EA0120686026B9206A03F024
:102A700097FE0028D5D1FFF74BFFA968CB4AC1F3D9
:102A80000311515C01F01F01C840C9490860C948E1
:102A90000068FFF7AEFA00287ED12EE0CAE000BF42
:102AA000FFF732F8A0EB0800022876D828688007E4
:102AB000F6D5286840F0080028602868216A20F0D0
:102AC000F000084328606868E16920F47F4040EA2C
:102AD0000120686011E0FFE720F001002860FFF7A7
:102AE00013F8804606E000BFFFF70EF8A0EB0800E1
:102AF0000228DAD828688007F6D42078C00740D0AA
:102B0000082E18D00C2E01D1032F14D06068B0F518
:102B1000803F17D0B0F5A02F286817D020F4803060
:102B20002860286820F4802028606068E0B1FEF703
:102B3000EBFF804614E02868800322D560680028F7
:102B400078D01EE0286840F48030EDE740F4802023
:102B50002860F7E7FEF7D8FFA0EB08006428A4D8A8
:102B600028688003F6D50CE0FEF7CEFF804605E02E
:102B7000FEF7CAFFA0EB0800642896D828688003F7
:102B8000F6D4207880073BD5042E11D00C2E01D12D
:102B9000022F0DD0E06801E0AAE1FFE000282868DC
:102BA0001ED040F480702860FEF7AEFF07460CE0B0
:102BB000286840050CD5E0680028C1D008E000BFB7
:102BC000FEF7A2FFC01B022893D828684005F7D55E
:102BD0006868217C20F0F85040EA016068600FE0EE
:102BE00020F480702860FEF78FFF074605E000BFE5
:102BF000FEF78AFFC01B0228B1D828684005F7D429
:102C00002078000729D560690028D5F8940012D0F3
:102C100040F00100C5F89400FEF776FF074604E097
:102C2000FEF772FFC01B022899D8D5F894008007E0
:102C3000F6D512E02BE120F00100C5F89400FEF774
:102C400063FF074605E000BFFEF75EFFC01B0228DA
:102C500085D8D5F894008007F6D42078400766D54B
:102C6000A86D0027C00008D4A86D40F08050A8656A
:102C7000A86D012700F0805000904F480168C905F9
:102C800012D40168814641F480710160FEF73CFF77
:102C9000804605E0FEF738FFA0EB080002287DD84B
:102CA000D9F80000C005F5D5A068012816D0052880
:102CB000D5F8900017D020F00100C5F89000D5F8A5
:102CC000900020F0040000BFC5F89000A06841F219
:102CD0008839C0B1FEF718FF80460FE0D5F89000A4
:102CE00040F00100F0E740F00400C5F89000F5E77F
:102CF000FEF70AFFA0EB080149454FD8D5F8900030
:102D00008007F5D50EE0FEF7FFFE804606E000BF27
:102D1000FEF7FAFEA0EB080149453FD8D5F8900030
:102D20008007F5D41FB1A86D20F08050A8652078E9
:102D3000800628D5606A0028D5F8980012D040F0A7
:102D40000100C5F89800FEF7DFFE074605E000BF6A
:102D5000FEF7DAFEC01B022820D8D5F898008007BD
:102D6000F6D510E020F00100C5F89800FEF7CCFE83
:102D7000074604E0FEF7C8FEC01B02280ED8D5F8AF
:102D800098008007F6D4A06AF0B3022816D00C2E63
:102D90007DD0286820F08070286000E0A7E0FEF772
:102DA000B3FE0446A6E0000000100240E8DD000883
:102DB000380000203000002000700040E868E26A1F
:102DC00000F00301914228D1216B00F0700209014B
:102DD0001039914221D1626B00F4FE41B1EB022F18
:102DE0001BD194F8382000F07841B1EBC26F14D1B8
:102DF000A18F00F4C00249084905A1F500119142D4
:102E00000BD194F8401000E06AE04908490600F050
:102E1000C060A1F1007181424BD00C2E73D02868A4
:102E2000400170D4286820F080702860FEF76CFEA6
:102E3000064604E0FEF768FE801B022857D8286883
:102E40008001F7D4F4E90B016FF00F0202EB0111DE
:102E50000843218A5204490802EB4151A26841EA21
:102E600002210843217D4FF07E42490802EB416177
:102E70000843217B40EAC160E968244A11400843C5
:102E8000E860286840F080702860E86800E03AE078
:102E900040F08070E860FEF737FE044605E000BFB2
:102EA000FEF732FE001B022821D828688001F7D5E2
:102EB00027E02868800124D4286840F080702860CA
:102EC000E86840F08070E860FEF71EFE044604E00B
:102ED000FEF71AFE001B022809D828688001F7D5E2
:102EE0000FE000BFFEF710FE001B022802D90320EE
:102EF000BDE8F88328688001F4D4E86804490840F4
:102F0000E8600020F4E70120F2E700008C809D01DA
:102F1000FCFFEEFE10B500680B4641680D4801400D
:102F2000080CD870C1F304245C7001F03F049C705D
:102F3000C1F34231197052B903F070FCD87058785F
:102F400003F06CFC5870987803F068FC98700020CF
:102F500010BD00003FFFFF0010B50B460168896AF5
:102F6000596001680969C1F30E0199600068016840
:102F70000D480140C1F305401870C1F306245C7090
:102F800001F07F049C70890DD97052B903F046FCA2
:102F90001870587803F042FC5870987803F03EFCA3
:102FA0009870002010BD00007F7F7F0010B50400E6
:102FB0004FF0010048D094F8210028B9002084F88F
:102FC0002000204600F04AF8022084F82100206802
:102FD000C168C943C90638D5CA2141622168532056
:102FE0004862204603F024FCB0B9206881681A4A80
:102FF00011408160216888686268A3691043226972
:103000001A43104388602168E068086120680169FC
:10301000228941EA02410161204603F02DFC00288B
:103020000DD12168CA6C22F00302CA646269E169A9
:1030300041EA02012268D36C41EA0301D1642268AB
:103040004FF0FF01516202D010BD4FF000004FF071
:10305000010184F8211010BDBFFF8FFF10B598B09B
:1030600004465C216846FDF700FB0B492068884256
:1030700010D14FF400300090401216906846FFF7D0
:1030800023FA08B1FDF706FE044850F8901F41F4FA
:103090000041016018B010BD00280040001002403F
:1030A00070B504460B482168C860FEF72DFD054643
:1030B0004FF47A7607E000BFFEF726FD401BB042D2
:1030C00001D9032070BD2068C0688006F4D50020B7
:1030D00070BD00005FFF03002DE9FE4F044600278E
:1030E00003200E4684F83400606C03285BD0B6F5EC
:1030F000805F58D04FF4006500204FF08068AE42EA
:103100001FD18146009001900021206803F0F2FE5B
:10311000800113D46946204603F024FF05000DD139
:103120000198400334D5B4F850000104206803F03E
:10313000CFFB050002D10221206823E0A06B2843C9
:1031400028E01EB1A06B40F0006023E081460090B3
:1031500001900021206803F0CDFE8001EED4694685
:10316000204603F0FFFE0500E8D10198C0030FD50B
:10317000B4F850000104206803F0AAFB0500DDD17B
:103180000021206803F0F1FB0500D7D14D46D5E7BB
:103190004546D3E7A063A06BDFF880A038B1216873
:1031A000C1F838A025E0A06B40F08050F2E74FF462
:1031B0000020FEF7DBFFC0B1D4E9055101F1020C9C
:1031C000B0FBFCF8D4E90223DFF854C0D4F8049033
:1031D000E04502D9B0FBFCF1891E0096CDE9015112
:1031E0004946206803F089FE04E0A06B40F00060CF
:1031F000A06301274FF40071206803F09DFB30B1FC
:103200002268C2F838A0A16B0143A1630127012005
:1032100084F83400384600F005B80000FF0540008F
:1032200040787D011EBCBDE8E08F10B504000DD0D4
:10323000032084F83400206803F070FE204600F07C
:103240007FF90020A06384F8340010BD012010BD78
:10325000F0B5426E920F0A70426EC2F383624A70FA
:10326000426EC2F301628A70426E120CCA70B0F8EC
:103270006420120A0A7190F864204A71826E120D5D
:10328000CA80826EC2F303420A72B0F86820C2F3A9
:10329000C0324A72B0F86820C2F380328A72B0F845
:1032A0006820C2F34032CA72B0F86820C2F300321C
:1032B0000A7300264E73426C4FF40075012462B10C
:1032C000012A3AD0026847499163816B41F08051ED
:1032D000816380F834400120F0BDB0F86820C36EEF
:1032E0009205120D42EA93720A61C26EC2F3C26283
:1032F0000A75C26EC2F302624A75C26EC2F34252CE
:103300008A75C26EC2F38242CA75C26EC2F3C232FD
:103310000A760A69521C42650B7E03F007039B1C68
:103320009A4042650B7A03F00F0704FA07F38365AE
:103330005B0A5A43C0E917250EE090F86820C36E77
:103340009206920A42EA13420A610A69521C9202E8
:103350004265C0E91652056630F86C2FC2F3803220
:1033600001F8192F0288C2F3C6124A70027802F0DF
:103370007F028A704268D20FCA704268C2F34172FB
:103380000A714268C2F382624A714268C2F3835290
:103390008A714268C2F34052CA710E724268C2F327
:1033A00000424A728288C2F3C0328A728288C2F3B3
:1033B0008032CA728288C2F340320A738288C2F3B2
:1033C00000324A738288C2F381228A738288C2F3F0
:1033D0000122CA730079C0F3460008744C740020BF
:1033E000F0BD0000FF054000426C0A60826C4A603C
:1033F000C26C8A60026DCA60426D0A61826D4A6168
:10340000C26D8A61006EC8610020704770B50446C5
:10341000B0F8500000250104206803F08EFB18B1BD
:10342000A16B0143A16304E00021206803F062FD69
:103430000546C5F3432070BD70B5040013D094F861
:103440003400002518B92577204600F097F80320AE
:1034500084F83400204600F00FF820B92046216996
:10346000FFF73AFE08B1012070BDA5632563012076
:1034700084F83400002070BD2DE9FE4304464FF06F
:1034800000084FF40020FEF771FE05004FF0010721
:103490002ED02648CDF80080B5FBF0F6B61ECDE95B
:1034A0000186424643461146206803F026FD206807
:1034B000416821F480714160206803F033FD206889
:1034C000416841F480714160B61CB5FBF6F01849C3
:1034D000B1FBF0F0401CFEF76DF9204603F01AFE38
:1034E00060B100BF84F83470A16B0143A16319E09F
:1034F00084F834704FF00060A06313E0204603F0BE
:103500009EFD0028EED14FF40071206803F014FAFC
:10351000002808D0226807499163A16B0143A16389
:1035200084F83470012000F007B80000801A06000B
:1035300010210100FF05400006BCBDE8F883000033
:1035400010B50068094988420FD10948016E21F47D
:10355000806101664FF4F8510648FEF73DF9BDE879
:10356000104004210448FEF737B910BD002801407F
:103570000010024000080048000C0048F0B587B079
:10358000044614216846FDF770F8194920688842FE
:103590002BD11848016E41F480610166016E01F47F
:1035A00080610591C16C41F00401C164C16C01F0FE
:1035B00004010591C16C41F00801C164C06C022492
:1035C00000F0080005904FF4F850002503260C2762
:1035D0008DE8F10069460848FEF7A0F904208DE85F
:1035E000F10069460548FEF799F907B0F0BD000003
:1035F000002801400010024000080048000C00486C
:103600002DE9F04F87B09B4616460D460446FEF75F
:103610007BFA00903DB194F83400012807D0A06BEC
:1036200040F000500DE0A06B40F0006009E0002089
:10363000A063E26D06EB0B01914204D9A06B40F050
:103640000070A06385E0032184F834102168C8620B
:10365000616C012900D076024FF0FF3101914FEAF1
:103660004B2102914FF0010803AA902102278146C5
:10367000CDF8188082E8820201A9206803F0DAFA06
:10368000BBF1010F05D927633146206803F0C6F965
:1036900005E0C4F830803146206803F0D8F9DFF83F
:1036A00034A130B12268C2F838A0A16B0143A163F4
:1036B0004BE0029E1EE0406B000413D596B100273C
:1036C000206803F037FC05F8010B010A05F8011B1F
:1036D000010C05F8021B000E361F7F1C05F8010CBB
:1036E000082FEDD3FEF710FA0099411A1098814285
:1036F0001CD2D8B12068416B11F4957FDBD0416BAF
:10370000C90509D5BBF1010F06D9616C032903D0A6
:1037100003F044FA0028C5D12068416B09071AD587
:10372000C0F838A0A06B40F0080051E02168C1F853
:1037300038A0A06B40F00040A06384F83480C4F847
:103740003090032007B000F047B884F83480C4F804
:1037500030900120F6E7416B890705D5C0F838A005
:10376000A06B40F0020033E0416B89061CD5C0F825
:1037700038A0A06B40F020002AE000BF03F0DAFB85
:1037800005F8010B010A05F8011B010C05F8021BE5
:10379000000E05F8010C361FFEF7B6F90099411A24
:1037A000109881420ED268B12068416B890201D520
:1037B000002EE3D1216840F23A50886384F83480C7
:1037C0000020BFE72168C1F838A0A06B40F000409E
:1037D000A063BAE7FF05400030BCBDE8C08F000021
:1037E0002DE9F04F8DB09B4616460D460446FEF778
:1037F0008BF90A903DB194F83400012807D0A06BF2
:1038000040F000500DE0A06B40F0006009E00020A7
:10381000A063E26D06EB0B01914204D9A06B40F06E
:103820000070A0637AE0032184F834102168C86234
:10383000616C012900D076024FF0FF3103914FEA0D
:103840004B2104919021CDE905104FF00109CDE9FC
:103850000709824603A9206803F0ECF9BBF1010FC8
:1038600006D9202020633146206803F0B1F905E035
:10387000102020633146206803F0C3F95FEA000896
:1038800006D0216840488863A06B40EA080071E0D8
:10389000049E27E0406B40041CD5DEB15FF00007BA
:1038A00015F8010B009015F8011B361F40EA0120A6
:1038B000009015F8021B40EA0140009015F8011C29
:1038C00040EA016000906946206803F046FB7F1CD7
:1038D000082FE5D3FEF718F90A99411A1698814284
:1038E00020D2F8B12068416B11F48D7FD2D0416BAA
:1038F000C90524D5BBF1010F21D9616C03291ED064
:1039000003F04CF9D8B122681F499163A16B0143C0
:10391000C4F8381084F83490C4F830A001200DB0F9
:1039200000F034B8216818488863A06B40EA0800AA
:10393000A06384F83490C4F830A00320EFE7206837
:10394000416B090705D510498163A06B40F0080061
:1039500010E0416B890705D50B498163A06B40F0EE
:10396000020007E0416BC90606D507498163A06BD9
:1039700040F01000A063CDE740F23A51816384F833
:1039800034900020CBE70000FF05400030BCBDE8CC
:10399000C08F7047704770472DE9F04102680446B8
:1039A000D0691168936840F60F0528424FF0000572
:1039B0004FF0020605D187067ED58F067CD5A16E15
:1039C00033E1DFF894C203F0010701EA0C0C57EA77
:1039D0000C0C71D05FEAC07C0CD05FEAC15C09D5E9
:1039E0004FF0010CC2F820C0D4F8842042F001024C
:1039F000C4F88420820709D5DA0707D02268166246
:103A0000D4F8842042F00402C4F8842042070AD586
:103A1000DA0708D0236804221A62D4F8842042F01E
:103A20000202C4F8842002070CD501F020023A43B8
:103A300008D0236808221A62D4F8842042F00802D1
:103A4000C4F8842002050BD54A0109D523684FF438
:103A500000621A62D4F8842042F02002C4F8842064
:103A6000D4F88420002A36D0800605D5880603D5F0
:103A7000A16E09B120468847D4F88400216889687E
:103A8000490602D410F0280F27D0204603F06CFD21
:103A90002068806840061BD52068083050E8001F69
:103AA00021F0400140E80012002AF5D1606F78B1A2
:103AB0006A498163606F00E015E0FDF7BBFD0028F7
:103AC00009D0606F816B00E02046BDE8F0410847F7
:103AD0002046FFF760FFBDE8F0812046FFF75BFF5F
:103AE000C4F88450F7E7D4F860C02027BCF1010F78
:103AF0007ED15FEAC06C7BD55FEAC16C78D51020BF
:103B000010622068806840064FD5616F0A6850686F
:103B10000004000C3DD0B4F85830834239D9A4F8E1
:103B20005A000868006880062BD4206850E8001FFF
:103B300021F4807140E80012002AF6D12068083094
:103B400050E8001F21F0010140E80012002AF5D1E1
:103B50002068083050E8001F21F0400140E80012C2
:103B6000002AF5D1C4F880702566206850E8001F4F
:103B700021F0100140E80012002AF6D1606FFDF735
:103B800034FD6666B4F85800B4F85A10401A81B291
:103B900007E0B4F8581081429DD1106880069AD58C
:103BA00066662046FFF7F5FE95E7B4F85800B4F8CE
:103BB0005A10401A81B2B4F85A0000288BD000295C
:103BC00089D0226852E8000F20F4907042E8000388
:103BD000002BF6D12068083050E8002F22F00102B7
:103BE00040E80023002BF5D1C4F88070256600E082
:103BF0000AE0A566226852E8000F20F0100042E8B3
:103C00000003002BF6D1CBE7C60209D55B0207D52E
:103C10004FF4801010622046BDE8F041FFF7BABEB5
:103C2000020606D50A0604D5E16E00297FF44CAFE2
:103C300051E74006B8D54806B6D52046026852E896
:103C4000001F21F0400142E80013002BF6D1C767A6
:103C5000C56600F01DF93EE7200100045575000817
:103C600010B5040002D0E06F10B107E0012010BDD4
:103C7000002084F87800204600F026F82420E06731
:103C80002068016821F001010160606A10B12046DE
:103C900003F0A8FB204603F055FD0128E7D020687B
:103CA000416821F4904141602068816821F02A0137
:103CB00081602068016841F0010101602046BDE893
:103CC000104003F0F3BB000030B59DB00446142152
:103CD00017A8FCF7CAFC5C216846FCF7C6FC1A4929
:103CE000206888422ED10224002568460995009458
:103CF000FEF7EAFB08B1FCF7CDFF1448816D41F4F3
:103D000000318165816D01F400311C91C16C41F07D
:103D10000101C164C06C17A900F001001C900C20C7
:103D200081E8310003201A9007201B904FF090404B
:103D3000FDF7F4FD002211462620FEF781F926202A
:103D4000FEF770F91DB030BD004400400010024085
:103D500030B4D0F88030202B02D0022030BC704725
:103D6000A9B1A2B1002303660A4C0368A3420BD099
:103D70005B681B0208D5046854E8003F43F0806389
:103D800044E80035002DF6D130BC03F0DBBD012046
:103D9000E4E70000008000400068114988421DD11E
:103DA0001048017869B941887F290AD242780E4BC0
:103DB0000D2A0DD00A2A0BD041880B44491C4180A2
:103DC0001A70084908480122491C8030FFF7C0BF1B
:103DD00042880021995401210170F2E770470000E8
:103DE0000044004002000020540300202DE9F84365
:103DF0000446C06F984616460D46202802D0022081
:103E0000BDE8F88395B18EB10020C4F8840021206C
:103E1000E067FDF779FEA4F850608146A4F852608F
:103E2000A0682027B0F5805F02D003E00120E7E71B
:103E3000206910B12E46002510E000260EE08021FA
:103E4000204603F0DBFDC0B9D6B116F8010B21689E
:103E50000885B4F85200401EA4F85200B4F852008D
:103E60004B464FF00002CDF800800028E7D14FF01C
:103E70004001204603F0C2FD38B1E7670320BFE7E9
:103E800035F8020BC0F30800E1E7E7670020B7E769
:103E90007047FEE701688A69D243920701D4002285
:103EA0008A6200688169C943C90703D0816941F00A
:103EB00001018161704700002DE9F0470446006868
:103EC00089460026816935461746C9064FF0200805
:103ED00041D51021C1612FE0B9F1FF3F2CD0FDF792
:103EE00013FEC11B494502D8B9F1000F24D1206847
:103EF000416894F8422001F480418369DB431B044C
:103F000015D4B1F5804F12D0202A10D0416841F469
:103F100080414160FDF7F8FD074608E0FDF7F4FD3C
:103F2000C01B192803D945F02005012604E02068AC
:103F30008069C0438006F1D420688069C043800650
:103F400002D5002EC8D003E016B92168C1F81C8044
:103F500045F00405012621688869C20505D54FF49E
:103F6000807245F00105CA610126410509D5226824
:103F70004FF4806145F00805D1610126800502D427
:103F80000AE0800507D521684FF4007045F002056E
:103F9000C861012600E086B12046FFF77BFF54F898
:103FA000240B4168064A11404160206A2843206280
:103FB00084F81D800020A07720773046BDE8F08788
:103FC00000E800FE2DE9F84304461646DDE90897AF
:103FD00014489846DAB200900023204600F092F888
:103FE0003A464946204600F029F9B8B9F5B2B8F189
:103FF000010F08D02168300A88623A4649462046B7
:1040000000F01CF950B9206885624B46002240211F
:104010002046009700F0AAF8002800D00120BDE853
:10402000F8830000002000802DE9F843044616467E
:1040300015489846DDE90897DAB2C3020090204699
:1040400000F060F83A464946204600F0F7F8B8B963
:10405000F5B2B8F1010F08D02168300A88623A46FB
:104060004946204600F0EAF850B9206885624B4680
:10407000002280212046009700F078F8002800D028
:104080000120BDE8F88300000020008070B5012207
:104090000E4D540221462846FDF730FD012216023E
:1040A00031462846FDF72AFD00F0F5F800222146AA
:1040B0002846FDF723FD00F0EEF8002231462846A1
:1040C000FDF71CFDBDE8704000F0E5B800040048B5
:1040D00070B50B4D4FF40074002221462846FDF7C1
:1040E0000DFD012211022846FDF708FD00F0D3F86E
:1040F00021462846BDE870400122FDF7FFBC0000C4
:104100000004004810B5C1F3090141EA0241026808
:10411000029C19432143506821F000414FF4806311
:1041200003EA5453024C234398430843506010BDA4
:10413000FF63FF0370B50C4C012251022046FDF7CE
:10414000DDFC00F0A8F80122150229462046FDF703
:10415000D5FC00F0A0F8002229462046FDF7CEFC51
:10416000BDE8704000F097B8000400482DE9F04128
:104170001D4617460E460446DDF8188027E04246E5
:1041800029462046FFF798FE10B10120BDE8F081D6
:10419000681C1CD0FDF7B8FCA0EB0800A84200D8B2
:1041A000ADB92068806936EA00000ED00020B84220
:1041B0000DD154F8440F40F0200044F804092020A9
:1041C00060700020A0702070DFE70120EFE720681A
:1041D000806936EA000004D00020B842CFD0002029
:1041E000D4E70120F9E770B516460D4604461EE0F7
:1041F000324629462046FFF75FFE08B1012070BD18
:10420000FDF782FC801BA84200D885B92068806930
:10421000C04380060BD554F8440F40F0200044F80A
:104220000409202060700020A0702070E6E720685C
:104230008069C0438006DBD4002070BD70B516468F
:104240000D46044620E0324629462046FFF734FE5C
:1042500008B1012070BD681C16D0FDF755FC801B0D
:10426000A84200D885B920688069C04380070BD573
:1042700054F8440F40F0200044F8040920206070F6
:104280000020A0702070E4E720688069C0438007A8
:10429000D9D4002070BD0320401EC0B2FCD27047AC
:1042A00000EB8100006E00F0F84070478068C0F3BA
:1042B000C00070478068C0F380007047C06810F489
:1042C000406F01D00020704701207047042303EAAB
:1042D000D15310B518444369C1F3045107248C40ED
:1042E000A3438A401343436110BD00EB8100016E7C
:1042F00021F00041114301667047000070B586B09F
:1043000018216846FCF7B1F9264825490024C0E980
:10431000001400F10C0101250426846081E870007E
:10432000047645760321C16180F820408462C4622E
:1043300080F830502903416380F83850C463046426
:10434000C0E91145FCF7C6FE08B1FCF7A3FC16480E
:1043500000900620CDE901057F200594CDE90306F4
:1043600069461048FCF7BCFC08B1FCF793FC0F4809
:1043700000900C20019069460A48FCF7B1FC08B196
:10438000FCF788FC0A480090122001906946054815
:10439000FCF7A6FC002801D0FCF77CFC06B070BD41
:1043A00000000450980100202000F0140008302E76
:1043B0000010603200B589B024216846FCF755F939
:1043C0001149104808600846FDF793F808B1FCF75A
:1043D00061FC00200090019002900390024604903E
:1043E00069460948FCF7EEFF08B1FCF753FC1022C0
:1043F00069460548FCF7E6FF002801D0FCF74AFCB7
:1044000009B000BD0074004044020020054808B512
:10441000816C41F001018164806C00F0010000902A
:1044200008BD00000010024010B504490448FCF724
:1044300033FC0249491E087010BD00002500002011
:10444000100000202DE9F04786B014216846FCF7E3
:104450000CF95848C16C41F00401C164C16C01F011
:1044600004010591C16C41F08001C164C16C01F08F
:1044700080010591C16C41F00101C164C16C01F082
:1044800001010591C16C41F00201C164C16C01F0F0
:1044900002010591C16C41F00801C164C06CDFF8F4
:1044A000188100F008000590002203214046FDF726
:1044B00025FB01221C214046FDF720FBDFF8FCA074
:1044C00043F20306012231465046FDF717FB4FF039
:1044D000904901224FF4C0514846FDF70FFB4FF4BD
:1044E0000047002239464846FDF708FB00224FF4FA
:1044F0007E715046FDF702FB0F200090012500243D
:10450000CDE90154694640460394FDF707FA1020AF
:1045100000901120CDE90104694640460394FDF75F
:10452000FDF90096CDE90154694650460394FDF724
:10453000F5F94FF440408DE8310069465046FDF7EB
:10454000EDF9C0208DE8310069464046FDF7E6F9F7
:10455000E802CDE900050226CDE902566946484643
:10456000FDF7DCF928030090CDE90154694648467F
:104570000394FDF7D3F900970396CDE901546946FA
:104580004846FDF7CBF9F820CDE90005CDE9024614
:1045900069465046FDF7C2F94FF44070CDE9000579
:1045A000CDE9025669465046FDF7B8F906B0BDE8B8
:1045B000F087000000100240000800480004004896
:1045C000134810B5114901601249416000210122D0
:1045D000C0E90212016141618161C1610162FDF7BF
:1045E000EDFA08B1FCF756FB00210948FDF792FAF5
:1045F00008B1FCF74FFB00210548FDF7B6FA00288B
:1046000003D0BDE81040FCF745BB10BD005800408A
:1046100058020020CB8CC00000B585B0142168463C
:10462000FCF723F80B480021094AC0E900217F224A
:104630008260FF22C0E9032141618161C161FEF70F
:10464000B5FC002801D0FCF725FB05B000BD00003B
:1046500000280040AC02002010B50F480D49002290
:10466000C0E90012CC148260C0E903241E21C0E915
:104670000521FEF7E1FE08B1FCF70CFB21460648D8
:10468000FEF72AFD002803D0BDE81040FCF702BB6E
:1046900010BD000000280140D00200200D4810B5D8
:1046A0000B4901604FF4E1314160002181600C222F
:1046B000C160C0E904128161C16101624162FFF71A
:1046C000CFFA002803D0BDE81040FCF7E3BA10BDD4
:1046D00000440040D4030020FEE7FEE730B4002190
:1046E000084B0A465FF0000003EBC004401CC0B258
:1046F00062548028F8D3491CC9B20829F2D330BCCF
:1047000000F014B95C0400202DE9FE4F151ACDE924
:1047100000104FF000085E1A47464FF0FF30002DA2
:1047200002DD4FF0010102E003D14FF000018B46A2
:1047300002E08346C5F10005002E02DD4FF00100C6
:1047400002E003D14FF00000824602E08246C5F14C
:104750000006B54201DD2C4600E03446601C4FF0F7
:104760000009029019E000980C9AC1B20198C0B2F9
:1047700000F01CF8A8443744A04504DD0198A8EBDC
:10478000040858440190A74203DD00983F1B5044A1
:10479000009009F101001FFA80F902998945E2DBD6
:1047A00000F000B81EBCBDE8E08F000030B5CC08BA
:1047B00001F0070301259D40EBB2064D05EBC00556
:1047C000C808285C0AB1184302E063EA0000C0434D
:1047D000285530BD5C0400202DE9F04F8846DDF8F7
:1047E00024B00646802A1ED8402B1CD896421AD8E0
:1047F000984518D80025971BA3EB080911E0002461
:1048000008EB050A09E000BF30190AF0FF01C0B249
:104810005A46FFF7CBFF641CE4B2A742F4DC6D1CE0
:10482000EDB2A945EBDC00F000B830BCBDE8C08FAC
:1048300010B50021AE2000F07AF90021084600F002
:1048400076F90021102000F072F90021402000F0DC
:104850006EF90021812000F06AF90021CF2000F0DC
:1048600066F90021A12000F062F90021C82000F0C3
:104870005EF90021A62000F05AF90021A82000F0DE
:1048800056F900213F2000F052F90021D32000F01A
:104890004EF90021084600F04AF90021D52000F029
:1048A00046F90021802000F042F90021D92000F0D3
:1048B0003EF90021F12000F03AF90021DA2000F061
:1048C00036F90021122000F032F90021DB2000F03F
:1048D0002EF90021402000F02AF90021202000F0CC
:1048E00026F90021022000F022F900218D2000F09D
:1048F0001EF90021142000F01AF90021A42000F074
:1049000016F90021A62000F012F9FFF7E7FE0021BA
:10491000BDE81040AF2000F00AB90246012000E0D7
:104920005043491EC9B2FBD27047000070B5184E03
:10493000002400BF04F1B000C0B2002100F0F7F87D
:104940000021084600F0F3F80021102000F0EFF8F5
:10495000FFF79CFB782002F0CDFCFFF7EBFB40203B
:1049600002F0C8FCFFF7E6FB5FF0000506EBC500B0
:10497000005D02F0BFFCFFF7DDFB6D1CEDB2802D8A
:10498000F4D3FFF7A5FB641CE4B2082CD2D370BDAE
:104990005C0400202DE9FC4F1C460E4682468B46E7
:1049A0000190082B0ED0600700D0012000EBD4004E
:1049B000610810FB01F0C0B28146203AD0B20090ED
:1049C00000204AE00620F7E7082C12D00C2C17D064
:1049D000102C1AD0182C43D10098234900EBC000AA
:1049E00001EB8001002711F80850E80712D00B9A5C
:1049F00013E000981D4900EB400001EB4001F1E796
:104A000000981B4900EB4000EAE71A49009801EBC7
:104A10000011E7E70B9828B3002231465046FFF714
:104A2000C5FE761C7F1C6D08FFB2F6B2082FDCD3E2
:104A30000AF1010000F0FF0A082C0AD00199AAEB44
:104A40000100B0EB540F04D10BF108008A4600F0CE
:104A5000FF0B08F101005E46C0B280464845B3D363
:104A600000F00AB80122D8E72ECC0008A2BF000847
:104A7000CAC100083EC600081CBCBDE8E08F2DE995
:104A8000F84F0025DDE90A691F4692468B468046AD
:104A9000082E00D1022500241CE0381B401EC1B2A4
:104AA0000A20FFF73AFFBAFBF0F00A21B0FBF1F25F
:104AB00001FB1200CDF8009080B13030C2B205EB9E
:104AC000560101FB0480C0B233465946FFF762FF2E
:104AD000641CE4B2BC42E0D300F008B805EB560118
:104AE00001FB0480C0B233463022EEE718BCBDE8BB
:104AF000E08F2DE9F8411E46884605461446079F7B
:104B00000BE03346414628460097FFF743FF082E47
:104B10000AD005EB5600C5B2641C2278A2F1200031
:104B20005E28EED9BDE8F881AD1DEDB2F4E770B5B1
:104B30000C460546FFF7AAFA782002F0DBFBFFF7E8
:104B4000F9FA0CB1402000E0002002F0D3FBFFF79F
:104B5000F1FA284602F0CEFBFFF7ECFABDE8704010
:104B6000FFF7B6BA7047000002480068002800D07E
:104B7000004770475800002010B5044600F090F838
:104B8000324800210A220170314801703148017019
:104B9000314801603148016031480170314801708D
:104BA0003148017031480068B0FBF2F0304A1060C3
:104BB0003048006830B1304A126801E002C0521E2D
:104BC000002AFBD12D4801602D4801602D4801606D
:104BD0002D4801602D4801602D4801602D4801607D
:104BE0002D48017000F002FF00F034FF204600F075
:104BF000B5FD2088002828D1204600F0B3FD20888C
:104C0000002822D1204601F057F9208800281CD125
:104C1000204600F07DFD2088002816D1204601F0B6
:104C2000ADF92088002810D1204601F079F82088BD
:104C300000280AD1204601F053FB2088002804D127
:104C4000FFF790FF15490120087010BD6800002093
:104C50006900002088000020C4000020C800002057
:104C60007C0000207D0000209000002000DF000874
:104C70008C000020D8DE0008DCDE00084C0000209C
:104C80005000002054000020580000205C0000204C
:104C90006000002064000020AE0000206A000020B8
:104CA00009480A490068096800EB8100084920F0BA
:104CB00007000860074800680322B2EB907F00D02D
:104CC000FEE7402048607047D8DE0008DCDE0008C0
:104CD0004400002034EF00E005480078012805D1A9
:104CE00004490878FA2801D2401C08707047000077
:104CF0006900002068000020184810B500780128DD
:104D00002AD14020FBF7CAFA154904460878F0B1C9
:104D1000401E10F0FF00087019D112480078B0B999
:104D200000F054FE10490870104951F83000104945
:104D3000086010490968884209D050F8841F491C4E
:104D400001600D480168491C0160FBF7A8FD204681
:104D5000BDE81040FBF7B0BA10BD000069000020AC
:104D600068000020880000207D000020C81A002074
:104D7000C8000020C4000020A80000202DE9F04158
:104D8000044614481546007810B142F6E16012E07E
:104D90007CB14020FBF782FA07460F482168814228
:104DA0000BD13846FBF788FA45F6C1502880BDE89C
:104DB000F08145F6C3501080F9E70026E6602661D1
:104DC00020602675201D00F082FD3846FBF774FA3E
:104DD0002E80ECE7680000204D5554582DE9F0472F
:104DE00005464A48089C904600788A4610B146F22B
:104DF000AE1056E046480078012802D045F689609A
:104E00004FE045B1B8F1000F08D0B8F5004F05D01C
:104E100045F6256045E045F6C35042E03D49286827
:104E2000884202D045F6C4503BE04020FBF736FAFA
:104E3000297D394F06464FF0000969B128693A6863
:104E400090421DD1FF2915D0491C29753046FBF72A
:104E500033FA45F2827024E038680121286129750F
:104E6000416BE96045633046FBF726FAA4F80090F1
:104E7000BDE8F0873046FBF71FFA45F2847010E07A
:104E80005FEA084105D53046FBF716FA46F2B01046
:104E900007E02249097831B13046FBF70DFA46F6B2
:104EA00063502080E4E790F82F3092F82F108B4267
:104EB00001D900F0A7FF534604222846396800F0C4
:104EC000DDFC3046FBF7F8F900F02AF84020FBF74C
:104ED000E5F9396891F82D1041B1012909D002296D
:104EE00011D0032908D046F62E6107E0A4F80090FF
:104EF00005E046F2A91101E047F2D9212180BDE881
:104F0000F047FBF7D9B945F6C251F7E76800002032
:104F1000690000204D555458C4000020880000202E
:104F2000194810B5007801282CD1184800780028BD
:104F300028D117480078002824D14020FBF7AEF98B
:104F4000044600F043FD13490870134951F830003E
:104F50001249086012490968884204D12046BDE818
:104F60001040FBF7A9B950F8841F491C01600D4897
:104F70000168491C0160FBF792FC2046FBF79CF995
:104F8000BFF36F8F10BD0000690000206800002093
:104F9000880000207D000020C81A0020C8000020E2
:104FA000C4000020A800002070B504461448007812
:104FB000012802D045F68B600CE0124801260088DB
:104FC000032802D845F68C6004E00F4D287818B10C
:104FD00045F68A60208070BD00F0F8FC0B4908702F
:104FE0000B4908700B4951F830000B4908600B4918
:104FF00008602E70FBF714FC43F69920EAE70000E6
:105000006A000020AC000020690000207D00002024
:105010007C000020C81A0020C8000020C400002026
:1050200070B505464020FBF739F9034900240C8090
:10503000FBF742F92C8070BD940000200248006804
:10504000002800D0004770475C0000202DE9FF4F8A
:1050500083B004464F48DDE91795DDE910860078F6
:10506000DDF854A0139F10B147F24A1024E04CB170
:10507000059850B166B14848006887420BD246F6A1
:10508000306019E047F2AD1016E047F24F1013E020
:1050900046F62F6010E01298B84202D346F631600F
:1050A0000AE0B8F13E0F0BD946F27320B8F13F0F7A
:1050B00002D13A498C4203D0288007B000F076B87C
:1050C000204600F005FF4FF0000BA5F800B05FEAA6
:1050D000897007D5304600215A4601E004C0491CBA
:1050E000B942FBD31298009706EB8000CDE90190FE
:1050F000DDE905013246029B00F098F9B04202D288
:1051000046F63260D8E784F82F8084F8308020603B
:105110000298C4F84CA0A0605FEA0A0030D0206575
:105120001698A763E6616060A4F83C900020594699
:1051300004EB8002401C116710F0FF00F8D004F16E
:105140005C00149900F056FB204600F03DF840202A
:10515000FBF7A4F8054694F82F0000F053FC204616
:1051600000F0B4FC0E490888401C08800D48007807
:105170000128284607D007B000F01BB8FBF79CB801
:1051800009480068CBE7FBF797F807B000F016B8BE
:10519000FFF7C6BE68000020FCDE0008201A0020D1
:1051A000AC000020690000208C00002030BCBDE86D
:1051B000C08F30BCBDE8C04FFFF7E0BF30BCBDE8DA
:1051C000C04FFFF7E5BF000002490968002900D081
:1051D000084770474C0000202DE9F0470446494835
:1051E0000E46007810B147F24E100BE046480078AA
:1051F000012802D045F6896004E04448844204D185
:1052000047F24C100880BDE8F08734B94020FBF726
:1052100045F83F490C68FBF74FF84020FBF73EF894
:10522000814694F82E004FF00008082863D2DFE88A
:1052300000F00440080843400808204600F072FCD3
:105240003AE094F82C0007282DD2DFE800F02C0477
:105250002C2C08040400204600F063FB23E0A06A25
:105260000569204615F82F7F00F05BFB15F8010B50
:1052700015F8301988420CD094F82F10884208D1C4
:10528000284600F0E1FA95F83010814200D2084635
:10529000074684F82C8095F82F00B84203D0394691
:1052A000284600F0AFFD94F82E00032801D007280F
:1052B00002D1204600F0E2FE606B10B1204600F003
:1052C000A3FA04F15C0000F07DFA204600F024F817
:1052D00010490888401E0880204600F0F9FDFF2094
:1052E00084F82E00A6F800804846FAF7E5FFBDE8EE
:1052F000F047FFF715BE4846FAF7DEFF46F62D6089
:10530000308080E76800002069000020201A00201B
:10531000C4000020AC00002002490968002900D028
:10532000084770475000002070B5044638480D46C5
:10533000007810B147F2551005E036480078012892
:1053400003D045F68960088070BD4020FAF7A6FFBB
:105350001CB1314909688C4204D1FAF7ADFF47F21C
:10536000571016E0FAF7A8FF4020FAF797FF064615
:105370000020288094F82E10082943D2DFE801F09D
:10538000040404040B222C363046FAF795FF47F24A
:105390005310288070BD94F87E10491E11F0FF0153
:1053A00084F87E1004D184F82E00204600F060FBC3
:1053B0003046FAF781FF28880028EBD1BDE870401D
:1053C000FFF7AEBD94F87E00401E10F0FF0084F899
:1053D0007E00EDD1012012E094F87E00401E10F016
:1053E000FF0084F87E00E3D1022008E094F87E00FC
:1053F000401E10F0FF0084F87E00D9D1032084F80D
:105400002E00D5E73046FAF757FF46F62D60C0E785
:105410006800002069000020C400002002490968DB
:10542000002900D0084770475400002010B5029CA6
:1054300002EB840222F007024FF0807442E902047A
:10544000184842F80C0C4FF0123042F8100CA2F140
:1054500014004FF0023240E903136FF0020140F8EC
:10546000101C4FF0113140F8141CD10040F8181CEA
:105470004FF0093140F81C1C910040F8201C4FF0FF
:1054800007314FF0033440F8241C610040F8281C19
:105490004FF0053140F82C1D5100C0E90A2440F8B6
:1054A000041D10BD655F00082DE9F0410446344835
:1054B0000D46007810B147F25D1004E03148844297
:1054C00004D147F25B100880BDE8F0814020FAF774
:1054D000E5FE06462C4F2D484CB93978012905D0F8
:1054E0003046FAF7E9FE45F6896041E00468006855
:1054F000844208D12648007828B13046FAF7DCFE0D
:1055000046F6635034E00020288094F82E100120E5
:1055100008292FD2DFE801F0040D191D1F1F1F1FDE
:10552000042184F82E1084F87E00204600F0FAFA58
:1055300001E005210AE03046FAF7BEFE387801287E
:10554000C2D1BDE8F041FFF7EBBC062184F82E1074
:1055500006E00721FAE794F87E00FF2803D0401CFC
:1055600084F87E00E7E73046FAF7A6FE47F26010BF
:105570002880A9E73046FAF79FFE46F62D60F7E748
:1055800068000020201A002069000020C4000020CC
:10559000880000200B4810B5006800B180470A4819
:1055A0000A49002200680968884207D0D0F88C3088
:1055B0005B4240F8883F846823448360C1F88C20B4
:1055C00010BD000060000020C4000020C8000020C2
:1055D0002DE9F04106461E480D461446007810B1EC
:1055E00047F2752015E01B480078012802D045F6E7
:1055F00089600EE01848007810B146F6635008E064
:1056000055B1022D08D0042D06D0082D04D045F642
:1056100025601080BDE8F0814020FAF73FFE2A4661
:105620000E4D074623463146286800F0F1FC2088DD
:1056300020B13846BDE8F041FAF73EBE286800F0D8
:1056400071FA3846FAF738FEBDE8F041FFF768BC5A
:10565000680000206900002088000020C4000020AD
:10566000094810B5007801280DD100F013F8084959
:105670000648097800EBC10000F074FABDE810405C
:10568000012000F08BBD10BD69000020C81A002069
:105690007C00002002480068002800D000477047C6
:1056A0006400002010B54020FAF7F8FD0446FFF72B
:1056B00013FB2046FAF700FEFFF7D2FFFCF782FC4F
:1056C000BDE81040FFF718BB4FF0E021401E4861D5
:1056D0000748026822F07F4242F080420260086977
:1056E00040F005000861086940F002000861704759
:1056F00020ED00E0054C4020FAF7D0FD2168491C60
:105700002160FAF7D9FDFFF72FFAF4E7980000209F
:1057100000B589B000210B2205910691CDE9072043
:1057200009480A4A0A4B006812681B680292CDE9D0
:1057300003013F20CDE900030B46064A0648FFF768
:1057400085FC09B000BD0000D4DE0008D0DE0008F2
:10575000CCDE0008F5560008201A00200021018048
:1057600070470000F0B5144C216859B1134E3188D0
:1057700059B189B2491E22688FB2002502F10C038B
:1057800029460CE045F21E7114E045F21D7111E04E
:10579000E2E802316D1C22F8041BADB20C33BD42AD
:1057A000F6D3116051601181054A23681360338874
:1057B0009380D1800180F0BDE4DE0008E0DE0008C7
:1057C0007400002010B5428982B1094903680C6851
:1057D0001C6043680B60CC884389E41ACC808C88B9
:1057E00023448B800021418101604160104610BD3F
:1057F00074000020018100214181016041607047F7
:10580000426BCA6041637047F8B50646446B14E0CA
:10581000002321463046E56800F026F8616879B13A
:10582000012026612075486BE0604C6300930023E3
:105830001A46204600F092F82C46002CE8D1F8BD1C
:10584000002020752061F7E73F21343007E04268EF
:1058500022B192F82F208A4200D211460C30006803
:105860000028F4D108467047343001E002F10C0002
:1058700002688A42FAD1D1680160704770B50C465F
:1058800081F82C200026054681F82D601946204617
:1058900000F0A2FA35B1281D2146A562BDE870408E
:1058A00000F019B8A66270BD70B5846A0646251D61
:1058B0006068006A002809D0304600F032F83146AE
:1058C0002846B462BDE8704000F005B870BD002104
:1058D00001604160704730B591F82F4002680023A5
:1058E0001AB90B624B62016014E092F82F50A54286
:1058F00003D8126A002AF8D108E03AB1546A5CB1C0
:105900000A62506A48620162516230BD0B624268AD
:105910004A621162416030BDC1E9082351620160F1
:1059200030BD10B5816A00290DD051F8042F002335
:10593000126A4AB1426A52B1046A64B11462626284
:1059400003624362836210BD0B604B60F8E7026A3A
:1059500053620A60F4E713624A60F1E770B50C46DF
:1059600091F82E10002508292ED2DFE801F02D2D08
:1059700004042D2D18186265A4F8583010B1204683
:10598000FFF7CFFF94F82E00032802D1204600F045
:1059900075FB204600F06CF884F82E5010E062652C
:1059A000A4F8583010B12046FFF7BBFF94F82E0042
:1059B000072802D1204600F061FB042084F82E0065
:1059C00084F82D5084F82C5070BD0000064910B5A5
:1059D000086818B1FAF77DFCC0B210BD4868FAF744
:1059E00078FC2030F8E70000800000200020044907
:1059F000024600BF41F82020401C0228FAD370471D
:105A00008000002008490122202806D2C0F11F0092
:105A10000B68824013430B607047C0F13F004B6836
:105A2000824013434B6070478000002008490122E8
:105A3000202806D2C0F11F000B68824093430B6000
:105A40007047C0F13F004B68824093434B60704702
:105A5000800000200020054B014600BF03EBC00280
:105A6000401C116051604028F8D37047C81A0020CC
:105A700010B5044690F82F00FFF7C4FF074994F8CB
:105A80002F0009788842204603D1BDE8104000F07D
:105A90001DB8BDE8104000F003B800007C000020F5
:105AA00090F82F10084A02EBC10100220B682BB1BD
:105AB000C0E903320A68106108607047C260026181
:105AC0000860486070470000C81A002090F82F1046
:105AD000074A02EBC10100220B68C26023B14A6889
